{"contracts/Lock.sol":{"Lock":{"abi":[{"inputs":[{"internalType":"uint256","name":"_unlockTime","type":"uint256"}],"stateMutability":"payable","type":"constructor"},{"anonymous":false,"inputs":[{"indexed":false,"internalType":"uint256","name":"amount","type":"uint256"},{"indexed":false,"internalType":"uint256","name":"when","type":"uint256"}],"name":"Withdrawal","type":"event"},{"inputs":[],"name":"lockedAmount","outputs":[{"internalType":"uint256","name":"","type":"uint256"}],"stateMutability":"view","type":"function"},{"inputs":[],"name":"owner","outputs":[{"internalType":"address","name":"","type":"address"}],"stateMutability":"view","type":"function"},{"inputs":[],"name":"unlockTime","outputs":[{"internalType":"uint256","name":"","type":"uint256"}],"stateMutability":"view","type":"function"},{"inputs":[],"name":"withdraw","outputs":[],"stateMutability":"nonpayable","type":"function"}],"evm":{"bytecode":{"linkReferences":{},"object":"608060405260405161060b38038061060b833981810160405281019061002591906100f6565b428111610067576040517f08c379a000000000000000000000000000000000000000000000000000000000815260040161005e906101a6565b60405180910390fd5b336000806101000a81548173ffffffffffffffffffffffffffffffffffffffff021916908373ffffffffffffffffffffffffffffffffffffffff1602179055508060018190555034600281905550506101c6565b600080fd5b6000819050919050565b6100d3816100c0565b81146100de57600080fd5b50565b6000815190506100f0816100ca565b92915050565b60006020828403121561010c5761010b6100bb565b5b600061011a848285016100e1565b91505092915050565b600082825260208201905092915050565b7f556e6c6f636b2074696d652073686f756c6420626520696e207468652066757460008201527f7572650000000000000000000000000000000000000000000000000000000000602082015250565b6000610190602383610123565b915061019b82610134565b604082019050919050565b600060208201905081810360008301526101bf81610183565b9050919050565b610436806101d56000396000f3fe608060405234801561001057600080fd5b506004361061004c5760003560e01c8063251c1aa3146100515780633ccfd60b1461006f5780636ab28bc8146100795780638da5cb5b14610097575b600080fd5b6100596100b5565b6040516100669190610277565b60405180910390f35b6100776100bb565b005b610081610234565b60405161008e9190610277565b60405180910390f35b61009f61023a565b6040516100ac91906102d3565b60405180910390f35b60015481565b600154421015610100576040517f08c379a00000000000000000000000000000000000000000000000000000000081526004016100f79061034b565b60405180910390fd5b60008054906101000a900473ffffffffffffffffffffffffffffffffffffffff1673ffffffffffffffffffffffffffffffffffffffff163373ffffffffffffffffffffffffffffffffffffffff161461018e576040517f08c379a0000000000000000000000000000000000000000000000000000000008152600401610185906103b7565b60405180910390fd5b7fbf2ed60bd5b5965d685680c01195c9514e4382e28e3a5a2d2d5244bf59411b93600254426040516101c19291906103d7565b60405180910390a160008054906101000a900473ffffffffffffffffffffffffffffffffffffffff1673ffffffffffffffffffffffffffffffffffffffff166108fc6002549081150290604051600060405180830381858888f19350505050158015610231573d6000803e3d6000fd5b50565b60025481565b60008054906101000a900473ffffffffffffffffffffffffffffffffffffffff1681565b6000819050919050565b6102718161025e565b82525050565b600060208201905061028c6000830184610268565b92915050565b600073ffffffffffffffffffffffffffffffffffffffff82169050919050565b60006102bd82610292565b9050919050565b6102cd816102b2565b82525050565b60006020820190506102e860008301846102c4565b92915050565b600082825260208201905092915050565b7f596f752063616e27742077697468647261772079657400000000000000000000600082015250565b60006103356016836102ee565b9150610340826102ff565b602082019050919050565b6000602082019050818103600083015261036481610328565b9050919050565b7f596f75206172656e277420746865206f776e6572000000000000000000000000600082015250565b60006103a16014836102ee565b91506103ac8261036b565b602082019050919050565b600060208201905081810360008301526103d081610394565b9050919050565b60006040820190506103ec6000830185610268565b6103f96020830184610268565b939250505056fea264697066735822122041b2014440655d701acf8ee77c0ae340f488a3d810422132f79c87d78d1ad97964736f6c634300081b0033","opcodes":"PUSH1 0x80 PUSH1 0x40 MSTORE PUSH1 0x40 MLOAD PUSH2 0x60B CODESIZE SUB DUP1 PUSH2 0x60B DUP4 CODECOPY DUP2 DUP2 ADD PUSH1 0x40 MSTORE DUP2 ADD SWAP1 PUSH2 0x25 SWAP2 SWAP1 PUSH2 0xF6 JUMP JUMPDEST TIMESTAMP DUP2 GT PUSH2 0x67 JUMPI PUSH1 0x40 MLOAD PUSH32 0x8C379A000000000000000000000000000000000000000000000000000000000 DUP2 MSTORE PUSH1 0x4 ADD PUSH2 0x5E SWAP1 PUSH2 0x1A6 JUMP JUMPDEST PUSH1 0x40 MLOAD DUP1 SWAP2 SUB SWAP1 REVERT JUMPDEST CALLER PUSH1 0x0 DUP1 PUSH2 0x100 EXP DUP2 SLOAD DUP2 PUSH20 0xFFFFFFFFFFFFFFFFFFFFFFFFFFFFFFFFFFFFFFFF MUL NOT AND SWAP1 DUP4 PUSH20 0xFFFFFFFFFFFFFFFFFFFFFFFFFFFFFFFFFFFFFFFF AND MUL OR SWAP1 SSTORE POP DUP1 PUSH1 0x1 DUP2 SWAP1 SSTORE POP CALLVALUE PUSH1 0x2 DUP2 SWAP1 SSTORE POP POP PUSH2 0x1C6 JUMP JUMPDEST PUSH1 0x0 DUP1 REVERT JUMPDEST PUSH1 0x0 DUP2 SWAP1 POP SWAP2 SWAP1 POP JUMP JUMPDEST PUSH2 0xD3 DUP2 PUSH2 0xC0 JUMP JUMPDEST DUP2 EQ PUSH2 0xDE JUMPI PUSH1 0x0 DUP1 REVERT JUMPDEST POP JUMP JUMPDEST PUSH1 0x0 DUP2 MLOAD SWAP1 POP PUSH2 0xF0 DUP2 PUSH2 0xCA JUMP JUMPDEST SWAP3 SWAP2 POP POP JUMP JUMPDEST PUSH1 0x0 PUSH1 0x20 DUP3 DUP5 SUB SLT ISZERO PUSH2 0x10C JUMPI PUSH2 0x10B PUSH2 0xBB JUMP JUMPDEST JUMPDEST PUSH1 0x0 PUSH2 0x11A DUP5 DUP3 DUP6 ADD PUSH2 0xE1 JUMP JUMPDEST SWAP2 POP POP SWAP3 SWAP2 POP POP JUMP JUMPDEST PUSH1 0x0 DUP3 DUP3 MSTORE PUSH1 0x20 DUP3 ADD SWAP1 POP SWAP3 SWAP2 POP POP JUMP JUMPDEST PUSH32 0x556E6C6F636B2074696D652073686F756C6420626520696E2074686520667574 PUSH1 0x0 DUP3 ADD MSTORE PUSH32 0x7572650000000000000000000000000000000000000000000000000000000000 PUSH1 0x20 DUP3 ADD MSTORE POP JUMP JUMPDEST PUSH1 0x0 PUSH2 0x190 PUSH1 0x23 DUP4 PUSH2 0x123 JUMP JUMPDEST SWAP2 POP PUSH2 0x19B DUP3 PUSH2 0x134 JUMP JUMPDEST PUSH1 0x40 DUP3 ADD SWAP1 POP SWAP2 SWAP1 POP JUMP JUMPDEST PUSH1 0x0 PUSH1 0x20 DUP3 ADD SWAP1 POP DUP2 DUP2 SUB PUSH1 0x0 DUP4 ADD MSTORE PUSH2 0x1BF DUP2 PUSH2 0x183 JUMP JUMPDEST SWAP1 POP SWAP2 SWAP1 POP JUMP JUMPDEST PUSH2 0x436 DUP1 PUSH2 0x1D5 PUSH1 0x0 CODECOPY PUSH1 0x0 RETURN INVALID PUSH1 0x80 PUSH1 0x40 MSTORE CALLVALUE DUP1 ISZERO PUSH2 0x10 JUMPI PUSH1 0x0 DUP1 REVERT JUMPDEST POP PUSH1 0x4 CALLDATASIZE LT PUSH2 0x4C JUMPI PUSH1 0x0 CALLDATALOAD PUSH1 0xE0 SHR DUP1 PUSH4 0x251C1AA3 EQ PUSH2 0x51 JUMPI DUP1 PUSH4 0x3CCFD60B EQ PUSH2 0x6F JUMPI DUP1 PUSH4 0x6AB28BC8 EQ PUSH2 0x79 JUMPI DUP1 PUSH4 0x8DA5CB5B EQ PUSH2 0x97 JUMPI JUMPDEST PUSH1 0x0 DUP1 REVERT JUMPDEST PUSH2 0x59 PUSH2 0xB5 JUMP JUMPDEST PUSH1 0x40 MLOAD PUSH2 0x66 SWAP2 SWAP1 PUSH2 0x277 JUMP JUMPDEST PUSH1 0x40 MLOAD DUP1 SWAP2 SUB SWAP1 RETURN JUMPDEST PUSH2 0x77 PUSH2 0xBB JUMP JUMPDEST STOP JUMPDEST PUSH2 0x81 PUSH2 0x234 JUMP JUMPDEST PUSH1 0x40 MLOAD PUSH2 0x8E SWAP2 SWAP1 PUSH2 0x277 JUMP JUMPDEST PUSH1 0x40 MLOAD DUP1 SWAP2 SUB SWAP1 RETURN JUMPDEST PUSH2 0x9F PUSH2 0x23A JUMP JUMPDEST PUSH1 0x40 MLOAD PUSH2 0xAC SWAP2 SWAP1 PUSH2 0x2D3 JUMP JUMPDEST PUSH1 0x40 MLOAD DUP1 SWAP2 SUB SWAP1 RETURN JUMPDEST PUSH1 0x1 SLOAD DUP2 JUMP JUMPDEST PUSH1 0x1 SLOAD TIMESTAMP LT ISZERO PUSH2 0x100 JUMPI PUSH1 0x40 MLOAD PUSH32 0x8C379A000000000000000000000000000000000000000000000000000000000 DUP2 MSTORE PUSH1 0x4 ADD PUSH2 0xF7 SWAP1 PUSH2 0x34B JUMP JUMPDEST PUSH1 0x40 MLOAD DUP1 SWAP2 SUB SWAP1 REVERT JUMPDEST PUSH1 0x0 DUP1 SLOAD SWAP1 PUSH2 0x100 EXP SWAP1 DIV PUSH20 0xFFFFFFFFFFFFFFFFFFFFFFFFFFFFFFFFFFFFFFFF AND PUSH20 0xFFFFFFFFFFFFFFFFFFFFFFFFFFFFFFFFFFFFFFFF AND CALLER PUSH20 0xFFFFFFFFFFFFFFFFFFFFFFFFFFFFFFFFFFFFFFFF AND EQ PUSH2 0x18E JUMPI PUSH1 0x40 MLOAD PUSH32 0x8C379A000000000000000000000000000000000000000000000000000000000 DUP2 MSTORE PUSH1 0x4 ADD PUSH2 0x185 SWAP1 PUSH2 0x3B7 JUMP JUMPDEST PUSH1 0x40 MLOAD DUP1 SWAP2 SUB SWAP1 REVERT JUMPDEST PUSH32 0xBF2ED60BD5B5965D685680C01195C9514E4382E28E3A5A2D2D5244BF59411B93 PUSH1 0x2 SLOAD TIMESTAMP PUSH1 0x40 MLOAD PUSH2 0x1C1 SWAP3 SWAP2 SWAP1 PUSH2 0x3D7 JUMP JUMPDEST PUSH1 0x40 MLOAD DUP1 SWAP2 SUB SWAP1 LOG1 PUSH1 0x0 DUP1 SLOAD SWAP1 PUSH2 0x100 EXP SWAP1 DIV PUSH20 0xFFFFFFFFFFFFFFFFFFFFFFFFFFFFFFFFFFFFFFFF AND PUSH20 0xFFFFFFFFFFFFFFFFFFFFFFFFFFFFFFFFFFFFFFFF AND PUSH2 0x8FC PUSH1 0x2 SLOAD SWAP1 DUP2 ISZERO MUL SWAP1 PUSH1 0x40 MLOAD PUSH1 0x0 PUSH1 0x40 MLOAD DUP1 DUP4 SUB DUP2 DUP6 DUP9 DUP9 CALL SWAP4 POP POP POP POP ISZERO DUP1 ISZERO PUSH2 0x231 JUMPI RETURNDATASIZE PUSH1 0x0 DUP1 RETURNDATACOPY RETURNDATASIZE PUSH1 0x0 REVERT JUMPDEST POP JUMP JUMPDEST PUSH1 0x2 SLOAD DUP2 JUMP JUMPDEST PUSH1 0x0 DUP1 SLOAD SWAP1 PUSH2 0x100 EXP SWAP1 DIV PUSH20 0xFFFFFFFFFFFFFFFFFFFFFFFFFFFFFFFFFFFFFFFF AND DUP2 JUMP JUMPDEST PUSH1 0x0 DUP2 SWAP1 POP SWAP2 SWAP1 POP JUMP JUMPDEST PUSH2 0x271 DUP2 PUSH2 0x25E JUMP JUMPDEST DUP3 MSTORE POP POP JUMP JUMPDEST PUSH1 0x0 PUSH1 0x20 DUP3 ADD SWAP1 POP PUSH2 0x28C PUSH1 0x0 DUP4 ADD DUP5 PUSH2 0x268 JUMP JUMPDEST SWAP3 SWAP2 POP POP JUMP JUMPDEST PUSH1 0x0 PUSH20 0xFFFFFFFFFFFFFFFFFFFFFFFFFFFFFFFFFFFFFFFF DUP3 AND SWAP1 POP SWAP2 SWAP1 POP JUMP JUMPDEST PUSH1 0x0 PUSH2 0x2BD DUP3 PUSH2 0x292 JUMP JUMPDEST SWAP1 POP SWAP2 SWAP1 POP JUMP JUMPDEST PUSH2 0x2CD DUP2 PUSH2 0x2B2 JUMP JUMPDEST DUP3 MSTORE POP POP JUMP JUMPDEST PUSH1 0x0 PUSH1 0x20 DUP3 ADD SWAP1 POP PUSH2 0x2E8 PUSH1 0x0 DUP4 ADD DUP5 PUSH2 0x2C4 JUMP JUMPDEST SWAP3 SWAP2 POP POP JUMP JUMPDEST PUSH1 0x0 DUP3 DUP3 MSTORE PUSH1 0x20 DUP3 ADD SWAP1 POP SWAP3 SWAP2 POP POP JUMP JUMPDEST PUSH32 0x596F752063616E27742077697468647261772079657400000000000000000000 PUSH1 0x0 DUP3 ADD MSTORE POP JUMP JUMPDEST PUSH1 0x0 PUSH2 0x335 PUSH1 0x16 DUP4 PUSH2 0x2EE JUMP JUMPDEST SWAP2 POP PUSH2 0x340 DUP3 PUSH2 0x2FF JUMP JUMPDEST PUSH1 0x20 DUP3 ADD SWAP1 POP SWAP2 SWAP1 POP JUMP JUMPDEST PUSH1 0x0 PUSH1 0x20 DUP3 ADD SWAP1 POP DUP2 DUP2 SUB PUSH1 0x0 DUP4 ADD MSTORE PUSH2 0x364 DUP2 PUSH2 0x328 JUMP JUMPDEST SWAP1 POP SWAP2 SWAP1 POP JUMP JUMPDEST PUSH32 0x596F75206172656E277420746865206F776E6572000000000000000000000000 PUSH1 0x0 DUP3 ADD MSTORE POP JUMP JUMPDEST PUSH1 0x0 PUSH2 0x3A1 PUSH1 0x14 DUP4 PUSH2 0x2EE JUMP JUMPDEST SWAP2 POP PUSH2 0x3AC DUP3 PUSH2 0x36B JUMP JUMPDEST PUSH1 0x20 DUP3 ADD SWAP1 POP SWAP2 SWAP1 POP JUMP JUMPDEST PUSH1 0x0 PUSH1 0x20 DUP3 ADD SWAP1 POP DUP2 DUP2 SUB PUSH1 0x0 DUP4 ADD MSTORE PUSH2 0x3D0 DUP2 PUSH2 0x394 JUMP JUMPDEST SWAP1 POP SWAP2 SWAP1 POP JUMP JUMPDEST PUSH1 0x0 PUSH1 0x40 DUP3 ADD SWAP1 POP PUSH2 0x3EC PUSH1 0x0 DUP4 ADD DUP6 PUSH2 0x268 JUMP JUMPDEST PUSH2 0x3F9 PUSH1 0x20 DUP4 ADD DUP5 PUSH2 0x268 JUMP JUMPDEST SWAP4 SWAP3 POP POP POP JUMP INVALID LOG2 PUSH5 0x6970667358 0x22 SLT KECCAK256 COINBASE 0xB2 ADD PREVRANDAO BLOCKHASH PUSH6 0x5D701ACF8EE7 PUSH29 0xAE340F488A3D810422132F79C87D78D1AD97964736F6C634300081B00 CALLER "},"methodIdentifiers":{"lockedAmount()":"6ab28bc8","owner()":"8da5cb5b","unlockTime()":"251c1aa3","withdraw()":"3ccfd60b"}}}}}