{
  "_format": "hh-sol-artifact-1",
  "contractName": "UserManager",
  "sourceName": "contracts/UserManager.sol",
  "abi": [
    {
      "inputs": [],
      "stateMutability": "nonpayable",
      "type": "constructor"
    },
    {
      "anonymous": false,
      "inputs": [
        {
          "indexed": true,
          "internalType": "uint256",
          "name": "userId",
          "type": "uint256"
        },
        {
          "indexed": false,
          "internalType": "string",
          "name": "name",
          "type": "string"
        },
        {
          "indexed": false,
          "internalType": "uint256",
          "name": "health",
          "type": "uint256"
        },
        {
          "indexed": false,
          "internalType": "uint256",
          "name": "strength",
          "type": "uint256"
        }
      ],
      "name": "UserAdded",
      "type": "event"
    },
    {
      "anonymous": false,
      "inputs": [
        {
          "indexed": true,
          "internalType": "uint256",
          "name": "userId",
          "type": "uint256"
        }
      ],
      "name": "UserDeleted",
      "type": "event"
    },
    {
      "anonymous": false,
      "inputs": [
        {
          "indexed": true,
          "internalType": "uint256",
          "name": "userId",
          "type": "uint256"
        },
        {
          "indexed": false,
          "internalType": "string",
          "name": "name",
          "type": "string"
        },
        {
          "indexed": false,
          "internalType": "uint256",
          "name": "health",
          "type": "uint256"
        },
        {
          "indexed": false,
          "internalType": "uint256",
          "name": "strength",
          "type": "uint256"
        }
      ],
      "name": "UserUpdated",
      "type": "event"
    },
    {
      "inputs": [
        {
          "internalType": "string",
          "name": "_name",
          "type": "string"
        },
        {
          "internalType": "uint256",
          "name": "_health",
          "type": "uint256"
        },
        {
          "internalType": "uint256",
          "name": "_strength",
          "type": "uint256"
        }
      ],
      "name": "addUser",
      "outputs": [],
      "stateMutability": "nonpayable",
      "type": "function"
    },
    {
      "inputs": [
        {
          "internalType": "uint256",
          "name": "_index",
          "type": "uint256"
        }
      ],
      "name": "deleteUser",
      "outputs": [],
      "stateMutability": "nonpayable",
      "type": "function"
    },
    {
      "inputs": [
        {
          "internalType": "uint256",
          "name": "_index",
          "type": "uint256"
        }
      ],
      "name": "getUser",
      "outputs": [
        {
          "internalType": "string",
          "name": "",
          "type": "string"
        },
        {
          "internalType": "uint256",
          "name": "",
          "type": "uint256"
        },
        {
          "internalType": "uint256",
          "name": "",
          "type": "uint256"
        }
      ],
      "stateMutability": "view",
      "type": "function"
    },
    {
      "inputs": [],
      "name": "getUsersCount",
      "outputs": [
        {
          "internalType": "uint256",
          "name": "",
          "type": "uint256"
        }
      ],
      "stateMutability": "view",
      "type": "function"
    },
    {
      "inputs": [],
      "name": "owner",
      "outputs": [
        {
          "internalType": "address",
          "name": "",
          "type": "address"
        }
      ],
      "stateMutability": "view",
      "type": "function"
    },
    {
      "inputs": [
        {
          "internalType": "uint256",
          "name": "_index",
          "type": "uint256"
        },
        {
          "internalType": "string",
          "name": "_name",
          "type": "string"
        },
        {
          "internalType": "uint256",
          "name": "_health",
          "type": "uint256"
        },
        {
          "internalType": "uint256",
          "name": "_strength",
          "type": "uint256"
        }
      ],
      "name": "updateUser",
      "outputs": [],
      "stateMutability": "nonpayable",
      "type": "function"
    },
    {
      "inputs": [
        {
          "internalType": "uint256",
          "name": "",
          "type": "uint256"
        }
      ],
      "name": "users",
      "outputs": [
        {
          "internalType": "string",
          "name": "name",
          "type": "string"
        },
        {
          "internalType": "uint256",
          "name": "health",
          "type": "uint256"
        },
        {
          "internalType": "uint256",
          "name": "strength",
          "type": "uint256"
        }
      ],
      "stateMutability": "view",
      "type": "function"
    }
  ],
  "bytecode": "0x6080604052348015600f57600080fd5b5033600160006101000a81548173ffffffffffffffffffffffffffffffffffffffff021916908373ffffffffffffffffffffffffffffffffffffffff16021790555061128d806100606000396000f3fe608060405234801561001057600080fd5b506004361061007d5760003560e01c8063a4a1e2631161005b578063a4a1e263146100ee578063b0467deb1461010c578063b970e22e1461013e578063be607b741461015a5761007d565b8063365b98b21461008257806338f14845146100b45780638da5cb5b146100d0575b600080fd5b61009c60048036038101906100979190610914565b610176565b6040516100ab939291906109e0565b60405180910390f35b6100ce60048036038101906100c99190610914565b610238565b005b6100d8610425565b6040516100e59190610a5f565b60405180910390f35b6100f661044b565b6040516101039190610a7a565b60405180910390f35b61012660048036038101906101219190610914565b610457565b604051610135939291906109e0565b60405180910390f35b61015860048036038101906101539190610bca565b610596565b005b610174600480360381019061016f9190610c4d565b610719565b005b6000818154811061018657600080fd5b90600052602060002090600302016000915090508060000180546101a990610ceb565b80601f01602080910402602001604051908101604052809291908181526020018280546101d590610ceb565b80156102225780601f106101f757610100808354040283529160200191610222565b820191906000526020600020905b81548152906001019060200180831161020557829003601f168201915b5050505050908060010154908060020154905083565b600160009054906101000a900473ffffffffffffffffffffffffffffffffffffffff1673ffffffffffffffffffffffffffffffffffffffff163373ffffffffffffffffffffffffffffffffffffffff16146102c8576040517f08c379a00000000000000000000000000000000000000000000000000000000081526004016102bf90610d8e565b60405180910390fd5b600080549050811061030f576040517f08c379a000000000000000000000000000000000000000000000000000000000815260040161030690610dfa565b60405180910390fd5b60016000805490506103219190610e49565b8110156103aa576000600160008054905061033c9190610e49565b8154811061034d5761034c610e7d565b5b90600052602060002090600302016000828154811061036f5761036e610e7d565b5b906000526020600020906003020160008201816000019081610391919061106e565b5060018201548160010155600282015481600201559050505b60008054806103bc576103bb611156565b5b6001900381819060005260206000209060030201600080820160006103e1919061086d565b6001820160009055600282016000905550509055807f42a77abd0397855f875460bb511f41935bfa5f396b556d95717d8c2e08334aae60405160405180910390a250565b600160009054906101000a900473ffffffffffffffffffffffffffffffffffffffff1681565b60008080549050905090565b606060008060008054905084106104a3576040517f08c379a000000000000000000000000000000000000000000000000000000000815260040161049a90610dfa565b60405180910390fd5b60008085815481106104b8576104b7610e7d565b5b90600052602060002090600302016040518060600160405290816000820180546104e190610ceb565b80601f016020809104026020016040519081016040528092919081815260200182805461050d90610ceb565b801561055a5780601f1061052f5761010080835404028352916020019161055a565b820191906000526020600020905b81548152906001019060200180831161053d57829003601f168201915b50505050508152602001600182015481526020016002820154815250509050806000015181602001518260400151935093509350509193909250565b600160009054906101000a900473ffffffffffffffffffffffffffffffffffffffff1673ffffffffffffffffffffffffffffffffffffffff163373ffffffffffffffffffffffffffffffffffffffff1614610626576040517f08c379a000000000000000000000000000000000000000000000000000000000815260040161061d90610d8e565b60405180910390fd5b600080549050841061066d576040517f08c379a000000000000000000000000000000000000000000000000000000000815260040161066490610dfa565b60405180910390fd5b6040518060600160405280848152602001838152602001828152506000858154811061069c5761069b610e7d565b5b906000526020600020906003020160008201518160000190816106bf9190611185565b506020820151816001015560408201518160020155905050837f507e6b1d82de053aeca7059744d3454faccf32b2fa15c3362920075682c7d41984848460405161070b939291906109e0565b60405180910390a250505050565b600160009054906101000a900473ffffffffffffffffffffffffffffffffffffffff1673ffffffffffffffffffffffffffffffffffffffff163373ffffffffffffffffffffffffffffffffffffffff16146107a9576040517f08c379a00000000000000000000000000000000000000000000000000000000081526004016107a090610d8e565b60405180910390fd5b6000604051806060016040528085815260200184815260200183815250908060018154018082558091505060019003906000526020600020906003020160009091909190915060008201518160000190816108049190611185565b5060208201518160010155604082015181600201555050600160008054905061082d9190610e49565b7feabcb8900cdae60d1603d8999fadc9a0c2926e0483c42b49a361e5f14617dc21848484604051610860939291906109e0565b60405180910390a2505050565b50805461087990610ceb565b6000825580601f1061088b57506108aa565b601f0160209004906000526020600020908101906108a991906108ad565b5b50565b5b808211156108c65760008160009055506001016108ae565b5090565b6000604051905090565b600080fd5b600080fd5b6000819050919050565b6108f1816108de565b81146108fc57600080fd5b50565b60008135905061090e816108e8565b92915050565b60006020828403121561092a576109296108d4565b5b6000610938848285016108ff565b91505092915050565b600081519050919050565b600082825260208201905092915050565b60005b8381101561097b578082015181840152602081019050610960565b60008484015250505050565b6000601f19601f8301169050919050565b60006109a382610941565b6109ad818561094c565b93506109bd81856020860161095d565b6109c681610987565b840191505092915050565b6109da816108de565b82525050565b600060608201905081810360008301526109fa8186610998565b9050610a0960208301856109d1565b610a1660408301846109d1565b949350505050565b600073ffffffffffffffffffffffffffffffffffffffff82169050919050565b6000610a4982610a1e565b9050919050565b610a5981610a3e565b82525050565b6000602082019050610a746000830184610a50565b92915050565b6000602082019050610a8f60008301846109d1565b92915050565b600080fd5b600080fd5b7f4e487b7100000000000000000000000000000000000000000000000000000000600052604160045260246000fd5b610ad782610987565b810181811067ffffffffffffffff82111715610af657610af5610a9f565b5b80604052505050565b6000610b096108ca565b9050610b158282610ace565b919050565b600067ffffffffffffffff821115610b3557610b34610a9f565b5b610b3e82610987565b9050602081019050919050565b82818337600083830152505050565b6000610b6d610b6884610b1a565b610aff565b905082815260208101848484011115610b8957610b88610a9a565b5b610b94848285610b4b565b509392505050565b600082601f830112610bb157610bb0610a95565b5b8135610bc1848260208601610b5a565b91505092915050565b60008060008060808587031215610be457610be36108d4565b5b6000610bf2878288016108ff565b945050602085013567ffffffffffffffff811115610c1357610c126108d9565b5b610c1f87828801610b9c565b9350506040610c30878288016108ff565b9250506060610c41878288016108ff565b91505092959194509250565b600080600060608486031215610c6657610c656108d4565b5b600084013567ffffffffffffffff811115610c8457610c836108d9565b5b610c9086828701610b9c565b9350506020610ca1868287016108ff565b9250506040610cb2868287016108ff565b9150509250925092565b7f4e487b7100000000000000000000000000000000000000000000000000000000600052602260045260246000fd5b60006002820490506001821680610d0357607f821691505b602082108103610d1657610d15610cbc565b5b50919050565b7f4f6e6c792074686520636f6e7472616374206f776e65722063616e207065726660008201527f6f726d207468697320616374696f6e2e00000000000000000000000000000000602082015250565b6000610d7860308361094c565b9150610d8382610d1c565b604082019050919050565b60006020820190508181036000830152610da781610d6b565b9050919050565b7f5573657220646f6573206e6f742065786973742e000000000000000000000000600082015250565b6000610de460148361094c565b9150610def82610dae565b602082019050919050565b60006020820190508181036000830152610e1381610dd7565b9050919050565b7f4e487b7100000000000000000000000000000000000000000000000000000000600052601160045260246000fd5b6000610e54826108de565b9150610e5f836108de565b9250828203905081811115610e7757610e76610e1a565b5b92915050565b7f4e487b7100000000000000000000000000000000000000000000000000000000600052603260045260246000fd5b600081549050610ebb81610ceb565b9050919050565b60008190508160005260206000209050919050565b60006020601f8301049050919050565b600082821b905092915050565b600060088302610f247fffffffffffffffffffffffffffffffffffffffffffffffffffffffffffffffff82610ee7565b610f2e8683610ee7565b95508019841693508086168417925050509392505050565b6000819050919050565b6000610f6b610f66610f61846108de565b610f46565b6108de565b9050919050565b6000819050919050565b610f8583610f50565b610f99610f9182610f72565b848454610ef4565b825550505050565b600090565b610fae610fa1565b610fb9818484610f7c565b505050565b5b81811015610fdd57610fd2600082610fa6565b600181019050610fbf565b5050565b601f82111561102257610ff381610ec2565b610ffc84610ed7565b8101602085101561100b578190505b61101f61101785610ed7565b830182610fbe565b50505b505050565b600082821c905092915050565b600061104560001984600802611027565b1980831691505092915050565b600061105e8383611034565b9150826002028217905092915050565b81810361107c575050611154565b61108582610eac565b67ffffffffffffffff81111561109e5761109d610a9f565b5b6110a88254610ceb565b6110b3828285610fe1565b6000601f8311600181146110e257600084156110d0578287015490505b6110da8582611052565b86555061114d565b601f1984166110f087610ec2565b96506110fb86610ec2565b60005b82811015611123578489015482556001820191506001850194506020810190506110fe565b86831015611140578489015461113c601f891682611034565b8355505b6001600288020188555050505b5050505050505b565b7f4e487b7100000000000000000000000000000000000000000000000000000000600052603160045260246000fd5b61118e82610941565b67ffffffffffffffff8111156111a7576111a6610a9f565b5b6111b18254610ceb565b6111bc828285610fe1565b600060209050601f8311600181146111ef57600084156111dd578287015190505b6111e78582611052565b86555061124f565b601f1984166111fd86610ec2565b60005b8281101561122557848901518255600182019150602085019450602081019050611200565b86831015611242578489015161123e601f891682611034565b8355505b6001600288020188555050505b50505050505056fea26469706673582212204f27eb4a46b9e6b2728d60a844991237584e804378aaeebae784fa09d3ec6f6564736f6c634300081b0033",
  "linkReferences": {},
  "deployedLinkReferences": {}
}