{
  "_format": "hh-sol-artifact-1",
  "contractName": "Lock",
  "sourceName": "contracts/Lock.sol",
  "abi": [
    {
      "inputs": [
        {
          "internalType": "uint256",
          "name": "_unlockTime",
          "type": "uint256"
        }
      ],
      "stateMutability": "payable",
      "type": "constructor"
    },
    {
      "anonymous": false,
      "inputs": [
        {
          "indexed": false,
          "internalType": "uint256",
          "name": "amount",
          "type": "uint256"
        },
        {
          "indexed": false,
          "internalType": "uint256",
          "name": "when",
          "type": "uint256"
        }
      ],
      "name": "Withdrawal",
      "type": "event"
    },
    {
      "inputs": [],
      "name": "lockedAmount",
      "outputs": [
        {
          "internalType": "uint256",
          "name": "",
          "type": "uint256"
        }
      ],
      "stateMutability": "view",
      "type": "function"
    },
    {
      "inputs": [],
      "name": "owner",
      "outputs": [
        {
          "internalType": "address",
          "name": "",
          "type": "address"
        }
      ],
      "stateMutability": "view",
      "type": "function"
    },
    {
      "inputs": [],
      "name": "unlockTime",
      "outputs": [
        {
          "internalType": "uint256",
          "name": "",
          "type": "uint256"
        }
      ],
      "stateMutability": "view",
      "type": "function"
    },
    {
      "inputs": [],
      "name": "withdraw",
      "outputs": [],
      "stateMutability": "nonpayable",
      "type": "function"
    }
  ],
  "bytecode": "0x608060405260405161060b38038061060b833981810160405281019061002591906100f6565b428111610067576040517f08c379a000000000000000000000000000000000000000000000000000000000815260040161005e906101a6565b60405180910390fd5b336000806101000a81548173ffffffffffffffffffffffffffffffffffffffff021916908373ffffffffffffffffffffffffffffffffffffffff1602179055508060018190555034600281905550506101c6565b600080fd5b6000819050919050565b6100d3816100c0565b81146100de57600080fd5b50565b6000815190506100f0816100ca565b92915050565b60006020828403121561010c5761010b6100bb565b5b600061011a848285016100e1565b91505092915050565b600082825260208201905092915050565b7f556e6c6f636b2074696d652073686f756c6420626520696e207468652066757460008201527f7572650000000000000000000000000000000000000000000000000000000000602082015250565b6000610190602383610123565b915061019b82610134565b604082019050919050565b600060208201905081810360008301526101bf81610183565b9050919050565b610436806101d56000396000f3fe608060405234801561001057600080fd5b506004361061004c5760003560e01c8063251c1aa3146100515780633ccfd60b1461006f5780636ab28bc8146100795780638da5cb5b14610097575b600080fd5b6100596100b5565b6040516100669190610277565b60405180910390f35b6100776100bb565b005b610081610234565b60405161008e9190610277565b60405180910390f35b61009f61023a565b6040516100ac91906102d3565b60405180910390f35b60015481565b600154421015610100576040517f08c379a00000000000000000000000000000000000000000000000000000000081526004016100f79061034b565b60405180910390fd5b60008054906101000a900473ffffffffffffffffffffffffffffffffffffffff1673ffffffffffffffffffffffffffffffffffffffff163373ffffffffffffffffffffffffffffffffffffffff161461018e576040517f08c379a0000000000000000000000000000000000000000000000000000000008152600401610185906103b7565b60405180910390fd5b7fbf2ed60bd5b5965d685680c01195c9514e4382e28e3a5a2d2d5244bf59411b93600254426040516101c19291906103d7565b60405180910390a160008054906101000a900473ffffffffffffffffffffffffffffffffffffffff1673ffffffffffffffffffffffffffffffffffffffff166108fc6002549081150290604051600060405180830381858888f19350505050158015610231573d6000803e3d6000fd5b50565b60025481565b60008054906101000a900473ffffffffffffffffffffffffffffffffffffffff1681565b6000819050919050565b6102718161025e565b82525050565b600060208201905061028c6000830184610268565b92915050565b600073ffffffffffffffffffffffffffffffffffffffff82169050919050565b60006102bd82610292565b9050919050565b6102cd816102b2565b82525050565b60006020820190506102e860008301846102c4565b92915050565b600082825260208201905092915050565b7f596f752063616e27742077697468647261772079657400000000000000000000600082015250565b60006103356016836102ee565b9150610340826102ff565b602082019050919050565b6000602082019050818103600083015261036481610328565b9050919050565b7f596f75206172656e277420746865206f776e6572000000000000000000000000600082015250565b60006103a16014836102ee565b91506103ac8261036b565b602082019050919050565b600060208201905081810360008301526103d081610394565b9050919050565b60006040820190506103ec6000830185610268565b6103f96020830184610268565b939250505056fea264697066735822122041b2014440655d701acf8ee77c0ae340f488a3d810422132f79c87d78d1ad97964736f6c634300081b0033",
  "linkReferences": {},
  "deployedLinkReferences": {}
}